{
  "_format": "hh-sol-artifact-1",
  "contractName": "JournalHash",
  "sourceName": "contracts/JournalHash.sol",
  "abi": [
    {
      "anonymous": false,
      "inputs": [
        {
          "indexed": true,
          "internalType": "address",
          "name": "user",
          "type": "address"
        },
        {
          "indexed": false,
          "internalType": "bytes32",
          "name": "hash",
          "type": "bytes32"
        }
      ],
      "name": "JournalHashAdded",
      "type": "event"
    },
    {
      "inputs": [
        {
          "internalType": "bytes32",
          "name": "hash",
          "type": "bytes32"
        }
      ],
      "name": "addJournalHash",
      "outputs": [],
      "stateMutability": "nonpayable",
      "type": "function"
    },
    {
      "inputs": [
        {
          "internalType": "address",
          "name": "user",
          "type": "address"
        }
      ],
      "name": "getJournalHashCount",
      "outputs": [
        {
          "internalType": "uint256",
          "name": "",
          "type": "uint256"
        }
      ],
      "stateMutability": "view",
      "type": "function"
    },
    {
      "inputs": [
        {
          "internalType": "address",
          "name": "user",
          "type": "address"
        }
      ],
      "name": "getJournalHashes",
      "outputs": [
        {
          "internalType": "bytes32[]",
          "name": "",
          "type": "bytes32[]"
        }
      ],
      "stateMutability": "view",
      "type": "function"
    }
  ],
  "bytecode": "0x6080604052348015600f57600080fd5b506104c08061001f6000396000f3fe608060405234801561001057600080fd5b50600436106100415760003560e01c80630b477314146100465780632c9e12c1146100625780637f251fde14610092575b600080fd5b610060600480360381019061005b9190610294565b6100c2565b005b61007c6004803603810190610077919061031f565b610178565b604051610089919061040a565b60405180910390f35b6100ac60048036038101906100a7919061031f565b61020e565b6040516100b99190610445565b60405180910390f35b6000803373ffffffffffffffffffffffffffffffffffffffff1673ffffffffffffffffffffffffffffffffffffffff1681526020019081526020016000208190806001815401808255809150506001900390600052602060002001600090919091909150553373ffffffffffffffffffffffffffffffffffffffff167f2c7458149d713d691c5e946449949559c48ba82fba559b92d649d20693b221eb8260405161016d919061046f565b60405180910390a250565b60606000808373ffffffffffffffffffffffffffffffffffffffff1673ffffffffffffffffffffffffffffffffffffffff16815260200190815260200160002080548060200260200160405190810160405280929190818152602001828054801561020257602002820191906000526020600020905b8154815260200190600101908083116101ee575b50505050509050919050565b60008060008373ffffffffffffffffffffffffffffffffffffffff1673ffffffffffffffffffffffffffffffffffffffff168152602001908152602001600020805490509050919050565b600080fd5b6000819050919050565b6102718161025e565b811461027c57600080fd5b50565b60008135905061028e81610268565b92915050565b6000602082840312156102aa576102a9610259565b5b60006102b88482850161027f565b91505092915050565b600073ffffffffffffffffffffffffffffffffffffffff82169050919050565b60006102ec826102c1565b9050919050565b6102fc816102e1565b811461030757600080fd5b50565b600081359050610319816102f3565b92915050565b60006020828403121561033557610334610259565b5b60006103438482850161030a565b91505092915050565b600081519050919050565b600082825260208201905092915050565b6000819050602082019050919050565b6103818161025e565b82525050565b60006103938383610378565b60208301905092915050565b6000602082019050919050565b60006103b78261034c565b6103c18185610357565b93506103cc83610368565b8060005b838110156103fd5781516103e48882610387565b97506103ef8361039f565b9250506001810190506103d0565b5085935050505092915050565b6000602082019050818103600083015261042481846103ac565b905092915050565b6000819050919050565b61043f8161042c565b82525050565b600060208201905061045a6000830184610436565b92915050565b6104698161025e565b82525050565b60006020820190506104846000830184610460565b9291505056fea2646970667358221220f0bab1e1119c0e8e4a272ec6d9de62645ace381207f745b4da6322df920851bd64736f6c634300081c0033",
  "linkReferences": {},
  "deployedLinkReferences": {}
}